:020000040800F2
:1000000000400020D1760008A1330008A333000887
:1000100000000000000000000000000000000000E0
:10002000000000000000000000000000A5330008F0
:100030000000000000000000A7330008A9330008FA
:100040002177000821770008217700082177000830
:10005000AB3300082177000821770008AD33000892
:10006000217700082177000821770008CD330008A8
:100070002177000821770008217700082177000800
:1000800021770008E5330008217700082177000870
:1000900021770008217700082177000821770008E0
:1000A00021770008217700082177000821770008D0
:1000B000217700082177000821770008F533000830
:1000C00010B5064C2378002B07D1054B002B02D02E
:1000D000044800E000BF0123237010BD040100208C
:1000E00000000000147C0008044B10B5002B03D066
:1000F0000349044800E000BF10BDC04600000000F6
:1001000008010020147C0008002243088B4274D3AD
:1001100003098B425FD3030A8B4244D3030B8B4208
:1001200028D3030C8B420DD3FF22090212BA030C11
:100130008B4202D31212090265D0030B8B4219D3F2
:1001400000E0090AC30B8B4201D3CB03C01A524112
:10015000830B8B4201D38B03C01A5241430B8B425A
:1001600001D34B03C01A5241030B8B4201D30B0343
:10017000C01A5241C30A8B4201D3CB02C01A52416A
:10018000830A8B4201D38B02C01A5241430A8B422D
:1001900001D34B02C01A5241030A8B4201D30B0216
:1001A000C01A5241CDD2C3098B4201D3CB01C01A30
:1001B000524183098B4201D38B01C01A524143093A
:1001C0008B4201D34B01C01A524103098B4201D328
:1001D0000B01C01A5241C3088B4201D3CB00C01A95
:1001E000524183088B4201D38B00C01A524143080D
:1001F0008B4201D34B00C01A5241411A00D2014632
:10020000524110467047FFE701B5002000F006F8A4
:1002100002BDC0460029F7D076E770477047C04658
:100220008446101C62468C46191C634600E0C0469A
:100230001FB501F04BFC002801D40021C8421FBDAE
:1002400010B501F0A5FB4042013010BD10B501F022
:100250003DFC002801DB002010BD012010BDC04680
:1002600010B501F033FC002801DD002010BD012095
:1002700010BDC04610B501F0C5FB002801DC002010
:1002800010BD012010BDC04610B501F0BBFB002819
:1002900001DA002010BD012010BDC0468446081CB4
:1002A0006146FFE71FB500F0E1F9002801D4002105
:1002B000C8421FBD10B500F073F94042013010BDB7
:1002C00010B500F0D3F9002801DB002010BD01209B
:1002D00010BDC04610B500F0C9F9002801DD0020AE
:1002E00010BD012010BDC04610B500F07FF90028F8
:1002F00001DC002010BD012010BDC04610B500F08B
:1003000075F9002801DA002010BD012010BDC0469B
:10031000F0B557464E46DE464546E0B5440243003A
:10032000C60F83B00F1C640A1B0EB24653D0FF2BBE
:1003300027D08022E400D20414437F225242904608
:100340009844002399469B467D027800FB0F6D0A76
:10035000000E009324D0FF2846D080230021ED001A
:10036000DB041D437F384746381A4F460F43BF0012
:10037000B9463300009A874F53404A46BA58019312
:100380009746002C4ED108239946F7339846FD3BFB
:100390009B467D027800FB0F6D0A000E0093DAD1B8
:1003A000002D26D1002001213300009A7A4F5340BE
:1003B0004246101A4A460A439200BA581D00974610
:1003C000009B2C009A468B465B46022B31D153464C
:1003D000FF21002438E0002C17D104239946002384
:1003E000984601339B46AFE7FF20002D0BD1022139
:1003F000DAE7280002F080FA431F9D4076235B4233
:10040000181A0021AFE70321ADE7200002F074FACB
:10041000431F9C4076235B421B1A98460023994653
:100420009B4691E70C239946F3339846FC3B9B4649
:100430008AE7032B00D1A5E05546012B00D081E0CF
:100440000123002100242B406402C905600ADB0758
:100450000843184303B03CBC90469946A246AB46BD
:10046000F0BD80240023E403FF21EDE7FF210024F9
:10047000EAE70123591A1B2966DD019A134000217E
:100480000024E1E78023DB031C4238D01D4251D019
:100490001C436402640A3300FF21D5E763016C0149
:1004A000A3423BD21B260021013801251F00490031
:1004B0005B00002F01DB9C4201D81B1B2943013E3E
:1004C000002EF3D11C00631E9C410C4301007F31C0
:1004D0000029CEDD630704D00F232340042B00D076
:1004E0000434230103D501002C4B80311C40FE292C
:1004F0000DDD0123019AFF2113400024A4E780238E
:10050000DB031C436402640A3300FF219CE70123E0
:10051000019AA401640AC9B2134095E71B1B1A266D
:100520000121C2E7009B8B469A4600244CE76302F8
:10053000E5D500258024E4032C436402640A009B73
:10054000FF2181E70195C1E723002020CB40411A1C
:100550008C40611E8C411C43630704D00F23234051
:10056000042B00D00434630105D50123019A012135
:100570001340002468E70123019AA401640A134090
:10058000002161E78023DB031C436402640A5346B5
:10059000FF2159E7507C0008907C0008FFFFFFF71F
:1005A00070B5420045024E024C00C30F6D0A120E98
:1005B000760A240EC90F0120FF2A06D0FF2C03D093
:1005C000A24201D1B54206D070BD002DFCD1FF2C56
:1005D000FAD1002EF8D18B4206D00120002AF3D1A7
:1005E0002800451EA841EFE70020EDE7F0B54200E6
:1005F00045024C02C30F48006D0A120E640A000E39
:10060000C90FFF2A1ED0FF2821D0002A0AD16E422E
:100610006E41F6B200280FD1002C0DD10020002D24
:1006200009D005E0002801D1002C01D08B4211D067
:10063000012158420843F0BD002EF7D001200139B6
:100640000843F8E7002DDED002204042F3E7002CFB
:10065000DBD0F9E78242EBDC04DBA542E8D80020DE
:10066000A542E8D20121581E0843E4E7F0B5420054
:100670004D024C004602760A120EC30F6D0A240E7C
:10068000C90FFF2A16D0FF2C18D0002A0AD17042B9
:100690007041C0B2002C15D0002805D001200139CE
:1006A0000843F0BD002C13D0994214D001205B42C6
:1006B0001843F6E70220002EF3D1E4E70220002DD4
:1006C000EFD1E2E7002DE7D10020002EE9D0EDE7E1
:1006D000002DE9D1EAE7A24206DCDFDBAE4203D817
:1006E0000020AE42DAD3DCE7012049420843D8E7D4
:1006F000F8B557464E464546DE46E0B54702460049
:1007000088467F0A360EC40F002E47D0FF2E24D015
:10071000FB008027FF041F43002399469A467F3E33
:1007200043465D025800DB0F6D0A000E984643D029
:10073000FF283BD0EB0080250022ED041D437F38CD
:100740003618731C41469B464B46614013430F2BA2
:1007500064D875489B00C3589F46002F42D1082398
:100760009946063BFF269A46DAE74146022A28D0F8
:10077000032A00D1CEE0012A00D0ACE011400020D5
:100780000022CCB24002D205400AE40710432043C5
:100790003CBC90469946A246AB46F8BD002F15D109
:1007A00004239946033B00269A46B9E7FF2002221C
:1007B000002DC5D00322C3E7002D19D1002001224E
:1007C000BEE70124FF220C400020DBE7380002F0E6
:1007D00093F87626431F9F4000237642361A9946A7
:1007E0009A469DE70C239946093BFF269A4697E7D0
:1007F000280002F081F8431F9D4076235B42181ABF
:1008000000229DE780200024C003FF22BAE73D00BC
:100810005246ABE73D0021005246A7E73B0C9C4601
:100820002A04120C2B0C1400604665463F043F0C52
:100830007C4342435D437B43270C9B18FF18BA421D
:1008400003D980235B029C46654424043A04240CAB
:10085000121993015C1EA3413F0C920E7D191A439D
:10086000AD0115432B0104D501235E466A081D40E6
:10087000154332007F32002A25DD6B0704D00F2399
:100880002B40042B00D004352B0103D53200274B1D
:1008900080321D40FE2A94DC0124A801400AD2B215
:1008A0000C406FE78020C003074207D0054205D106
:1008B00028434002400A4446FF2263E7384340028F
:1008C000400AFF225EE70124A31A1B2B05DD0C4022
:1008D0000022002056E75E46CBE72A002020DA40BF
:1008E000C31A9D402B005D1EAB4113435A0704D031
:1008F0000F221A40042A00D004335A0104D50124DF
:1009000001220C4000203DE701249B01580A0C40C5
:10091000002237E780200124C00328434002400A18
:100920000C40FF222EE7C046D07C0008FFFFFFF7F7
:10093000F0B54F46D64646464400C0B5C20F470202
:100940004802400A844666467B0A4800C90F9A4618
:10095000240E1500DB00000E8946F600FF2800D1AA
:100960008FE001214F464F403900914266D0221A54
:10097000002A00DC9DE000283DD1002E00D18BE054
:10098000511E002900D0B5E001249B1B5A0144D51B
:100990009B019F09380001F0AFFF05388740844272
:1009A00000DD96E0041B3A0020200134E240041BE5
:1009B000A7403B005F1EBB41002413435A0704D0ED
:1009C0000F221A40042A00D004335A0127D50134DB
:1009D000FF2C00D179E001229B015B0AE4B22A409E
:1009E0005B02E405580AD207204310431CBC904622
:1009F0009946A246F0BDFF2CE0D08021C9040E43E9
:100A00001B2A7BDC31002020D140821A9640721EC6
:100A100096410E439B1B5A01BAD45A07D0D10122EA
:100A2000DF082A40FF2C33D1002F00D1A8E080231B
:100A3000DB033B435B025B0AFF24D1E7211A002959
:100A40004CDD00282AD0FF2CB8D08020C0040643FB
:100A50001B2900DDAFE030002027C840791A8E4006
:100A6000711E8E4106439B195901D6D50134FF2CC6
:100A700000D185E001227A491A405B080B401343FC
:100A80009CE7002E00D070E76BE73B1EC5D100222B
:100A90007B025B0AE4B2A3E714008FE7002E4DD07F
:100AA000481E002857D19B1901245A01B5D50224AC
:100AB000E0E7002A25D1621CD2B2012A72DD9F1B19
:100AC0007A0135D5F71A0D0064E7012200232A4088
:100AD00086E73B00634A241A13406FE700296CD174
:100AE000611CC8B201284EDDFF2949D09B195B0863
:100AF0000C0063E7FF2A41D00A0081E701269B1B17
:100B000089E7002C1CD0FF2821D08024E404524225
:100B100023431B2A00DD96E01C002025D440AA1A9E
:100B200093405A1E93412343F31A04000D002DE70E
:100B3000002F00D02EE700220024A9E70C003DE79B
:100B4000002B58D0D243002AEED0FF28E1D1330049
:100B5000FF240D0032E7FF2910D0010078E7002BB9
:100B60006ED0FF24002E00D128E780225146D20308
:100B7000114203D06146114200D13300FF241DE72A
:100B8000FF2400232CE7002CE9D1002B63D0002E9A
:100B900000D113E79B195A0100D43EE7314A0C00FB
:100BA00013400BE7002C1ED1002B2FD1002E4FD06D
:100BB00033000D0002E7012655E7002C1FD1002B62
:100BC00043D0C94300290BD0FF2839D01B2944DC6E
:100BD0001C002027CC40791A8B40591E8B4123439F
:100BE0009B19040040E7002B1AD1002E24D1802746
:100BF0000022FF031BE7330004000D00DEE6FF28A0
:100C00001ED08024E40449422343DFE7002E00D1B4
:100C1000D4E69F1B7A0100D437E7F31A0D00CDE626
:100C2000FF24002E00D1C9E680225046D203104294
:100C3000A4D060461042A1D133000D00FF24BDE6D0
:100C40003300FF24BAE601236EE733000400B5E663
:100C5000002700221CE73300B0E60123C0E7C046AE
:100C6000FFFFFF7DFFFFFFFB70B5002830D0C317EB
:100C7000C4185C40C50F200001F03EFE9E231B1AE5
:100C8000962B0DDC9622D21A94402A006402640A44
:100C9000DBB26402DB05600AD2071843104370BD63
:100CA000992B19DC9922D21A002A29DD94402200BE
:100CB000144C1440510704D00F210A40042A00D0DC
:100CC0000434620113D4A401640ADBB22A00E0E711
:100CD000002200230024DCE705222100121AD14063
:100CE000B922D21A9440621E94410C43DAE7054BB4
:100CF0002A001C409F23A4011B1A640ADBB2C8E728
:100D00002200D5E7FFFFFFFBF8B54546DE46574614
:100D10004E460C03E0B54E00C90F88460D00610A2F
:100D2000440F0C43C70019035800DB0F9B464B0AC6
:100D3000510F0B43760D400D1900D200D84500D15C
:100D4000AEE0351A002D00DCF6E000280FD1134389
:100D500000D1DBE06B1E002B00D037E1BA1A9742BE
:100D6000BF41641A7F42E41B0126170024E0C64BF2
:100D70009E424DD080231B041943382D00DD07E12E
:100D80001F2D00DD38E12020431B9A460B00504602
:100D90008340994613004846EB40184303005046F1
:100DA0008240501E8241E9401A43BA1A611A9742A2
:100DB000A441170064420C1B230262D56402650A39
:100DC000002D00D1DFE0280001F096FD0300083B74
:100DD0001F2B00DDD2E020223C00D21A9D40D440DF
:100DE0009F4025439E4200DDC4E09E1B731C1F2BC9
:100DF00000DDF1E0202238002900D21AD8409140CD
:100E000097402C000143781E8741DC4000260F43A9
:100E10007B0709D00F233B40042B05D03B1DBB4271
:100E2000BF417F42E4191F0023022CD5964B0136A7
:100E30009E4200D19AE04546944BFF081C40600753
:100E4000760564020743240B760D00212403230B4F
:100E50000C0D8F4A24051C431440330523435B00CB
:100E6000ED075B082B43380019003CBC90469946BF
:100E7000A246AB46F8BD6446044300D111E204002B
:100E800067467B07C6D145466007FF080743E4086D
:100E90007D4B9E4230D024037605240B760DD4E79B
:100EA000331A9A46002B78DD002831D076488642E6
:100EB000AED08020000401435346382B00DCE9E02B
:100EC0000A43511E8A410021D219BA42BF41091971
:100ED0007C4217000C192302D3D56B4B01369E427E
:100EE00000D13AE10120694B1C407B0807401F43B9
:100EF000E007074364088BE723003B4300D1CBE1C5
:100F00008022120314432403240B9EE72E007FE764
:100F10000800104300D1B4E0581E002800D0DEE0E5
:100F2000BA18BA429B4164185B42E41817000126C4
:100F30002302A6D50226D5E7002D6ED1701C4005F0
:100F4000400D012800DCF9E0B81A84468742804150
:100F5000E51A40422D1A280200D489E0D71BBA4274
:100F600092411C1B5242A51AD84629E74546002447
:100F700000276AE7454CF61A2C4049E73D0028381F
:100F8000854000272EE7380001F0B6FC20301DE731
:100F90000A43511E8A41002107E7002B00D0F3E0ED
:100FA000701C43055B0D012B00DCADE0364B984215
:100FB00000D1D1E0BA18BA42BF4164187F42E419A7
:100FC000E707520817436408060021E72E488542C8
:100FD00000D193E01D00D0E629001F3EF140202BF8
:100FE00000D18DE04022D31A9D402F437D1EAF419A
:100FF00000240F43002644E72B000800203BD84084
:101000000300202D00D17DE04020451BA9400A436C
:10101000511E8A4100211A43C7E6002E50D01A4EB5
:10102000B04257D080266B429946360434434B4633
:10103000382B00DDD6E01F2B00DD35E12026F51A28
:101040002600AE40B2463E00DE40AC463500564675
:101050002E436546AF407D1EAF41DC403743D71B72
:10106000BA4292410C1B5242A41A0600D846A3E68B
:10107000644667462C4300D0A2E6002500260027E0
:1010800006E71E00C4E6C046FF070000FFFF7FFF23
:10109000FFFF0F801F2B63DC2020C31A080098403D
:1010A0009C46834653461000D840030058461843D8
:1010B00063469A40531E9A4153460243D94003E780
:1010C00026003E4306D0EB439946002BC7D0944EF2
:1010D000B042ACD10C0017000600D84698E6904B01
:1010E0009A450BD08246E7E6002800D09EE0180023
:1010F000104300D1E9E01C001700D846884E87E66F
:10110000002572E7002182E723003B43002E00D038
:10111000ABE0002B00D1E7E00B00134300D177E6F2
:10112000BA18BA42BF4164187F42E419230200D4BE
:10113000F2E07C4B17001C40060069E620003843B3
:10114000002ED1D100285BD11C00144300D1A8E0AF
:101150001C001700D8465BE606000024002797E62F
:1011600050460B002038C34099465346202B00D1EF
:1011700095E0402350461B1A99400A43511E8A416C
:101180004B4600211A439FE6002E30D126003E43F5
:1011900067D0DB439A46002B1CD0614EB04260D032
:1011A0005346382B00DD96E01F2B00DD9FE0202604
:1011B000F31A26009E409C46B34653463E00DE404E
:1011C00033005E461E4363469F407B1E9F4153464D
:1011D000DC403743BF189742924164185242A4182A
:1011E000060078E627437C1EA741002437E74C4ED3
:1011F000B04236D080265B4236049A463443CFE76D
:101200001800104300D103E6B81A84466745AD4183
:10121000E01A6D42401B050200D42CE6D71BBA42EF
:1012200092411C1B5242A41AD846F1E51800104303
:1012300000D163E7F808670707438020E40800034C
:10124000044208D0DD08054205D1D20859071143F0
:101250000F002C00D8467B0FE4001C43FF00304EEB
:10126000D6E50C0017000600D2E5002B38D00B00A5
:10127000134300D142E7F808670707438020E408DA
:1012800000030442E7D0CB080342E4D1D208490767
:1012900011430F001C00DEE700270024D5E50021E4
:1012A0006BE700250027F3E54E462500203EF5407C
:1012B0004B462E00202B2DD04025ED1AAC40274365
:1012C0007C1EA74100243743C9E68024002524035F
:1012D000134E0027DCE527437C1EA741002479E755
:1012E0000C0017000E4E93E50C00170090E55646D3
:1012F0002300203EF34099465346202B0ED0402336
:1013000056469B1B9C4027437C1EA7414B4600240E
:101310001F435FE70024D2E71700B2E50024F2E79D
:10132000FF070000FFFF7FFFF0B557464546DE464A
:101330004E46E0B54C000E0387B0834692461D0032
:101340008046360B640DCF0F002C4FD06F4B9C4264
:1013500035D08023420F1B04F600134333439946D4
:10136000C30098466A4B00269C46002364440393BE
:101370002B031B0B9B466B00ED0F50465B0D01953D
:101380005ED0624A934253D05A46D1008022400F29
:10139000120402430A4393465246D1005C4A9446E3
:1013A000002263443800684084460290E41A1643E1
:1013B0000F2E00D9B4E0574BB6009B599F4603004F
:1013C000334399466CD10023984602330826039391
:1013D000CEE7CB464146039A0197022A65D1019B8D
:1013E0004A4C9C460023002298466BE0030033439E
:1013F00099464ED0002E00D1BCE1300001F07CFABD
:1014000003000B3B1C2B00DDACE11D22D31A5A4616
:101410000100DA4008398E401300334399465B4699
:101420008B40984600233C4C0026241A03939FE7E8
:1014300051465A46114329D1002293460232B1E760
:10144000594601431ED05B46002B00D19EE1584611
:1014500001F052FA03000B3B1C2B00DD8FE1020070
:101460005946083A91408B461D21CB1A5146D94026
:101470000B0059460B4351469B469140264B002298
:101480001B1A8FE7002301229B468BE7514603225C
:1014900088E700239846013304260024039367E776
:1014A0000323B14603930C2662E7032A00D15CE2D2
:1014B000019B012A00D0E4E113409C460023002454
:1014C0000022984600211203130B0A0D12051A433D
:1014D0002305124C40462240134362465B00D2076C
:1014E0005B081343190007B03CBC90469946A246DE
:1014F000AB46F0BD002380229C4612039846034C65
:10150000E0E70023014C00229846DBE7FF070000DC
:1015100001FCFFFF107D00080DFCFFFFFFFF0F80A7
:10152000D94500D939E100D134E1002346464D4682
:101530009A46013C5B460A0E1B021A430B02170C2B
:10154000039313041B0C3900280090460193FEF707
:10155000DBFD0200019B83465A4328003900914677
:10156000FEF758FE350C09040D43A9450DD95B461D
:101570004544013BA84500D93AE1A94500D837E1E7
:1015800002235B429C464544E3444B46EB1A390038
:1015900018000493FEF7B8FD019B05004343390092
:1015A00004989946FEF736FE330409041B0C0B43DE
:1015B000994509D943446A1E984500D91AE19945CD
:1015C00000D817E1023D43444A469B1A5A4612048A
:1015D0002A4303999346100C0A0C914609045A4673
:1015E000090C4E460D001204120C4543059151435F
:1015F0007243704352190E0CB218954203D98025DC
:101600006D02AC466044150C09041204090C28183C
:101610005218834200D2CEE000D1C8E01D1A5346D2
:101620009E1AB24592415242AB1A9A46984500D151
:1016300017E139001800FEF767FD019B05004343E1
:10164000390050460493FEF7E5FD04980B04310C75
:101650001943884209D941446B1E884500D907E1E6
:10166000884200D804E1023D4144049BCB1A180093
:1016700039000493FEF748FD019B8246434339003D
:1016800004980193FEF7C6FD01980B043104090C80
:10169000194388420DD953464144013B884500D93E
:1016A000E8E0884200D8E5E002235B429C464144E2
:1016B000E244019B2D04CE1A51462943059D4F4615
:1016C0002A000B04080C1B0C5A4345437B43784308
:1016D0005B19170CFB189D4203D980256D02AC469F
:1016E00060441D0C12041B04120C28189B1886421F
:1016F00000D293E000D18EE001231943A04BE31800
:10170000002B00DC99E04A0700D09EE05A46D20147
:1017100006D55A469B4B1A4080239346DB00E318BC
:10172000994A934268DD0123029A984C1A4000239B
:10173000944698460022C5E680224B461203134287
:101740000AD05B46134206D11A431203120BAC4671
:1017500088468E4CB6E64B461A431203120BBC4623
:101760008A4CAFE603005A46283B9A400023914634
:10177000984657E6584601F0BFF8203040E603008F
:101780005246283B9A400021934677E601F0B4F890
:1017900020305FE6884500D2C7E64B46DE075D088D
:1017A00043465B081E434346DB079A46C2E60025D4
:1017B000924500D333E7039E5946B446E244B2450E
:1017C000AD416D424544EB180139984507D2984226
:1017D00000D97FE000D1BCE01D1A8B461FE7984579
:1017E000FAD1039D5545F2D943468B461D1A16E79B
:1017F0009B46CAE61500E7E65A46C90852070A435F
:101800005B0590465C0D5A4601230299520219402D
:10181000120B8C4656E6002B00D16FE746444A1E59
:10182000B04529D91100864200D065E7039A93425A
:1018300000D061E762E7012149420120C21A382A3B
:1018400021DD029B03409C4638E60F220A40042A11
:1018500000D15BE70A00111D91429241524293442C
:1018600054E7474BE318002BE5DD01225242F2E733
:101870001D00FAE69A461CE7B04239D86ED0110036
:101880003AE702933AE71F2A3CDC20239B1A0C001C
:101890005846994098404B1E99415B46D440D340EE
:1018A000204308431A00430709D00F230340042BA9
:1018B00005D00100081D88429B415B42D2181302EB
:1018C0003AD50123029A01241A40002394469846EF
:1018D0000022F7E5022149428C46039DE344AC46D1
:1018E000E244AA45AD416D424544ED182D1A96E6F5
:1018F0008A1E03994D008D42894149424144761820
:1019000003958FE71F204042C31A5846D840030072
:10191000202A28D040205D46821A954029434A1E3D
:1019200091411943072300220B4009D00F230022C5
:101930000B400800042BBDD1010053075202120BCB
:10194000C9081943012388460299002419408C468E
:10195000B8E55245BED88B46002560E6039D9D4202
:10196000C6D3110062E70025D8E780225B46120348
:101970001A43019B1203120B9C468846034CA1E5B7
:10198000FF030000FFFFFFFEFE070000FF0700004F
:10199000F0B54F464646D6465C00C0B51F03DB0F88
:1019A0009A46174B0E034D0084468046360B6D0D4C
:1019B000C90F91463F0B640D01209D4208D09C4207
:1019C00001D0A5420BD01CBC90469946A246F0BD62
:1019D00063463343F7D1AC42F5D13A43F3D101200A
:1019E000BE42F0D1C845EED1514507D0002DEAD115
:1019F00063461E433000461EB041E4E70020E2E7A4
:101A0000FF070000F0B54546DE4657464E46E0B5B6
:101A10001F033D0B2C4F0E034C00AB465D0084466C
:101A2000360B640DC90F90466D0DDB0FBC422AD0FA
:101A3000254FBD422DD0002C0FD1304307008146E9
:101A400078427841C0B2002D17D15F463A4314D195
:101A50004B460020002B0AD006E0002D02D158464C
:101A6000024301D0994218D04842012108433CBCAE
:101A700090469946A246AB46F0BD0028F2D0012020
:101A8000013B1843F3E737000743D1D0022040421F
:101A9000EDE75F461743CED0F8E7AC42E4DC03DA6B
:101AA000481E01210843E2E75E45DDD806D000204C
:101AB0005E45DCD20123481E1843D8E7C445D3D87D
:101AC0000020C445F6D3D2E7FF070000F0B54E462C
:101AD0004546DE4657465C00E0B51F03DB0F9946DE
:101AE0002A4B0E034D00C90F8446360B6D0D8B46F5
:101AF00090463F0B640D9D4220D0244B9C4222D047
:101B0000002D12D1304343424341DBB2002C1FD0A1
:101B1000002B0CD04B460120013B034318003CBC7A
:101B200090469946A246AB46F0BD002C16D0CB4558
:101B300017D05B46594201230B43EFE731000223E4
:101B40000143EBD1D9E7390002231143E6D1D7E7AE
:101B50003A43DDD100230028E0D0EAE73A43E6D15A
:101B6000E7E7A542E5DC05DBBE42E2D807D000236B
:101B7000BE42D3D25946012301390B43CEE7C445B7
:101B8000D7D80023C445F5D3C8E7C046FF070000F7
:101B9000F0B557464546DE464E46E0B50C0398463E
:101BA0004E00230B87B0070092469B46760DCD0F63
:101BB000002E6BD06D4B9E4235D080245B46420F89
:101BC0002404DB0014431C43C3009946684BA3461E
:101BD0009C46002300276644029343461C035A0098
:101BE000DB0F5046240B520D984600D176E05F4B38
:101BF0009A426DD08023410F1B040B435C49E400E3
:101C00008C461C43C300002062444146B61869401C
:101C1000721C0191944607430F2F00D9B0E0554A3A
:101C2000BF00D25997465B460343994600D087E0F0
:101C300000239B46023308270293CEE742460192D7
:101C4000022867D0032800D10EE2012800D062E10B
:101C5000002300240022994601990140CDB20021C1
:101C600012030B0D120B1B051343434A24051340AB
:101C70001C436400ED0764082C434846210007B06C
:101C80003CBC90469946A246AB46F0BD03439946FC
:101C90004FD05B46002B00D189E1584600F02CFE66
:101CA00003000B3B1C2B00DD7AE11D22D31A3A0006
:101CB00001005C46DA4008398C4013008F40234312
:101CC0009B46B94600232D4E0027361A029384E71F
:101CD000534623432AD10024022096E75346234348
:101CE00020D0002C00D157E1200000F005FE0300B9
:101CF0000B3B1C2B00DD49E11D21CB1A5146020094
:101D0000D9405346083A944093400C431B4A121A58
:101D100000207AE70125019B144C1D40002300227E
:101D200099469CE70024002201206EE753460320D9
:101D30006BE700239B4601330427002602934CE700
:101D4000032381460C27029347E7802200230025C6
:101D500012039946054C82E75C464B4602986FE7B2
:101D60005C464B46019502986AE7C046FF070000B3
:101D700001FCFFFF507D0008FFFF0F800DFCFFFFFF
:101D80004A464946170C1A0C1B041B0C0804190080
:101D9000000C41431500884619007D4379430395A3
:101DA00089462900150045434D44029545462D0CB2
:101DB000AA46029D5544A94506D98A468021490272
:101DC0008946CA4451460391290C049141460904AD
:101DD0002D04090C88462900250C24044144240CB8
:101DE0000591210041438846210079438A46684392
:101DF000414650448146080C48446F43824503D90C
:101E00008021490289464F44010C894639004944E2
:101E1000029141460F0404993F0C88460004C01902
:101E200080444146049159460F0C0904090C884628
:101E300059438A4639005143894641464A435146EF
:101E4000090C8B467B43D2185A44934203D9802312
:101E50005B029B46D94451460904090C8A46414617
:101E600061437C43130C12044B445244A1468A46FE
:101E70003C0041466C434D4351464D440F0C7D1987
:101E8000A94503D98021490288464444049F039907
:101E9000B84641448B46834580414142884651467D
:101EA00008042F04000C3F18584602991018894660
:101EB000904292414F44BA46524299469346C24498
:101EC000D144CB448F42BF41C245894199459B4192
:101ED000934592417F4249422D0C52420F435B424F
:101EE00013437F19FF185B463C19DB0D059A64020A
:101EF0001C43430213435D1EAB415A46C00D0343CE
:101F000052021343E20156D501205A0803401343FD
:101F1000E207134364085A48604400284DDD5A071D
:101F200009D00F221A40042A05D01A1D9A429B415B
:101F30005B42E4181300E20104D58020514AC0003E
:101F400014406044504A904200DDE3E60125DB087E
:101F500062071A436402019B9146220B4405640DFB
:101F60001D407CE6802259461203114208D01442DB
:101F700006D122431203120B45469946434C6EE6A6
:101F80005B461A431203120B404C68E603005446AA
:101F9000283B9C400023B9E600F0AEFC2030A6E6CA
:101FA0000300283B9F400023BB4699468AE600F089
:101FB000A3FC203074E6B446ADE701252A1A382A7E
:101FC00006DD019B00241D4000230022994646E6C1
:101FD0001F2A21DC20252000AD1A1E00AB40A8409E
:101FE000D6405D1EAB4130431843D440430709D06F
:101FF0000F230340042B05D00300181D98429B417A
:102000005B42E418230221D50125019B01241D40D8
:1020100000230022994622E61F2521006D42281A3E
:10202000C1400800202A1DD05F35AA1A94402343DE
:102030005C1EA341072503431D400022002D09D04B
:102040000F2200241A401800042AD6D10300650785
:102050006402220BDB082B4301259946019B0024D7
:102060001D40FCE50024E2E7802201251203224303
:1020700001991203120B0D409946044CEFE5C0463E
:10208000FF030000FFFFFFFEFE070000FF07000048
:10209000F0B54646D6464F460C03C0B5CD0F4E00B0
:1020A000610A440F0C43C1005800400D84468A4623
:1020B0000F001903500F490A0143C648760DA84680
:1020C000DB0FD200844500D1D8E001204340AB4271
:1020D00000D1A6E06046351A002D00DC05E100289D
:1020E00010D10B00134300D1D7E06B1E002B00D0A2
:1020F0004BE153469F1ABA458041641A4042241A64
:1021000001261EE0B34B9E4248D080231B04194396
:10211000382D00DD19E11F2D00DD4CE120230F00DB
:102120005B1B10009A409F40E840531E9A41E940D3
:10213000074317435346DF1B611ABA45A441644263
:102140000C1B230200D4C5E06402650A002D00D1F7
:10215000F6E0280000F0D0FB0300083B1F2B00DD59
:10216000E9E020223C00D21A9D40D4409F40254304
:102170009E4200DDDBE09E1B731C1F2B00DD0AE18D
:1021800020223800D21A290097402C009140D840D4
:102190007A1E9741DC40002601430F437B0709D09C
:1021A0000F233B40042B05D03B1DBB42BF417F4268
:1021B000E4191F00230225D5864B01369E4200D12B
:1021C000AFE0854B01251C4043466207FF086402CF
:1021D00076051743240B760D1D4000212403230BA5
:1021E0000C0D7E4A24051C431440330523435B0039
:1021F000ED075B082B43380019001CBC904699463C
:10220000A246F0BD012543466207FF081743E408D4
:102210001D40704B9E4236D024037605240B760D6C
:10222000DBE76346F31A002B00DC94E060460028ED
:1022300035D068488642B1D080273F043943382BD7
:1022400000DCFDE00A43170000217A1E9741574445
:1022500057458041091944420C1923023AD55D4B78
:1022600001369E4200D14BE101225B4B1C407B08B2
:1022700017401F43E207174364088FE70800104325
:1022800000D024E721E723003B4300D1B9E18022BD
:10229000120314432403240B9FE72E007EE708005B
:1022A000104300D1CAE0581E8446002800D0E7E061
:1022B00052445245804164184042241817000126B8
:1022C000230207D50226CFE764462C4300D1B3E1B1
:1022D0002C0067467B0700D062E76307FF081F43B7
:1022E00001254346E4081D4093E7002D78D1751C75
:1022F0006D056D0D012D00DCF2E05046801A82451F
:10230000BF41651A7F42ED1B8446280200D48CE051
:102310005046171ABA4292410C1B5542651B98460B
:1023200014E70125434600241D40002755E72A4CA9
:10233000F61A2C4032E73D0028388540002717E781
:10234000380000F0D9FA203006E70A4317000021D0
:102350007A1E9741EEE6002B00D0E5E0731C9C4608
:102360005B055B0D012B00DC9FE01A4B9C4500D107
:10237000C5E0524452458041641840422418E707A2
:10238000520817436408664608E71248854200D1A0
:1023900085E01D00BCE629001F3EF140202B00D146
:1023A0007FE04022D31A9D402F437D1EAF41002481
:1023B0000F4300268EE72B000F00203BDF40202D2F
:1023C00071D040235D1BA9400A43511E8A41002160
:1023D0001743AFE6FF070000FFFF7FFFFFFF0F80FF
:1023E000002E3ED0B34EB44545D0802636046D4213
:1023F0003443382D00DDA8E01F2D00DD1FE120262D
:1024000027005046761BB740E84007435046B0408F
:10241000461EB041EC403843171ABA4292410C1B99
:102420005242A41A664698468BE6644667462C4399
:1024300000D08BE6002500260027EAE61E00ADE668
:102440001F2B60DC2027F81A0F00844687401000FD
:10245000D840074360468240501E8241D94017430E
:10246000F5E626005046064305D0ED43002DD3D0B7
:10247000904EB445BDD10C001700664698468DE6D7
:102480008C4883420BD06346D9E6002D00D096E0FD
:102490000800104300D1E2E00C0017009846854E7A
:1024A0007CE6002580E700218EE7230050460343A9
:1024B000002E00D0A8E0002B00D1DEE00B0013437B
:1024C00000D16BE6524452458041641840422418C2
:1024D0001700230200D4FDE6774B66461C405DE6FC
:1024E000250050460543002ECFD1002D4FD10C00C2
:1024F000144300D1A0E00C00170098464EE6664653
:102500000024002785E61F000800203FF840070050
:10251000202B00D18EE04020C31A99400A43511E5F
:102520008A410021174392E6002E14D1260050461E
:10253000064362D0DB43002B5CD18718974292415F
:1025400064185242A418664687E650462043441E4B
:10255000A041002460E7574EB4454ED08026360493
:102560005B423443382B00DD7FE01F2B00DD8BE026
:10257000202627005046F61AB740D8400743504659
:10258000B040461EB0410743DC40BF18D6E70D00FF
:10259000154300D102E65046801A8245BF41651AB4
:1025A0007F42ED1B8446280200D48DE65046171A60
:1025B000BA4292410C1B5242A41A9846EEE50D0015
:1025C000154300D16BE750466707C00807438020DA
:1025D000E4080003044207D0CD08054204D12C00D2
:1025E0009846D70849070F437B0FE4001C43FF00C0
:1025F000304ED3E52F4EB445B4D10C0017006646DB
:10260000CCE500270024E8E5002B39D00B0013436C
:1026100000D144E7C008670707438020E4080003AF
:102620000442E1D0CB080342DED1D70849070F436B
:102630001C00D9E7002171E700250027E9E52E00FD
:102640002700203EF740202D2FD04026751BAC40A0
:1026500050462043441EA04100243843DCE6802439
:1026600000252403134E0027D3E5504620430700DE
:10267000781E87410024BF1860E70C0017008DE525
:102680000C0017000B4E89E51E002700203EF74086
:10269000202B0CD04026F31A9C4050462043441E69
:1026A000A04107430024BF1848E70024D0E70024D6
:1026B000F3E7C046FF070000FFFF7FFF70B500286B
:1026C00030D0C317C4185C40C50F200000F014F9C7
:1026D000174B184A1B1AD21A1F2A18DD164AD21A8B
:1026E0009440002224035B05240B5B0D00211000A5
:1026F00024030A0D240B12052243104C1B05224013
:1027000013435B00ED075B082B43190070BD2100EC
:1027100091400A000B21081AC4405B052403240BD6
:102720005B0DE3E70025002300240022DEE7C0461E
:102730001E0400003304000013040000FFFF0F809C
:102740004100090E4B1C70B5DBB24602750AC40F7E
:10275000012B14DDE0239B006D07360BCB18002105
:102760000A0D280012051C4D32435B052A405B0808
:1027700013435B00E4075B082343190070BD002985
:1027800014D1002D1ED0280000F0B6F80A281CDC59
:102790000B232A001B1ADA40030015339D400F4B10
:1027A00012031B1A5B05160B5B0DD8E7002D06D034
:1027B000320B802636036D071643094BCFE7084BD3
:1027C0000026CCE700230026C9E703002A000B3BC4
:1027D0009A400025E3E7C046FFFF0F808903000011
:1027E000FF070000F0B54C00640D0B03621C450FA1
:1027F0005B0A52052B43C90FC500520D012A28DD83
:102800003A4AA618FE2E1BDC002E3EDD8001020097
:10281000501E82416D0F2A43DB0013435A0704D038
:102820000F221A40042A00D004338022D2041A4016
:102830005AD00136FF2E03D09B015B0AF4B201E0AF
:10284000FF2400235802E405400AC9072043084337
:10285000F0BD002C07D01D43F2D08020DB008004A7
:102860000343FF26DAE72B4303D00523DB08FF2CC5
:1028700003D05B025B0AE4B2E4E7002B32D0802095
:10288000C00303435B025B0ADCE73200173214DB50
:1028900080221E2712041343BF1B1F2F0FDC144A74
:1028A000944664442A00A5402E00A340751EAE4104
:1028B000FA40334313430026B0E70024D5E7022251
:1028C0005242961B1A00F240202F09D00948844634
:1028D0006444A3402B435D1EAB41002613439DE798
:1028E0000023F7E70023ADE73400BFE780FCFFFFDC
:1028F00082FCFFFFA2FCFFFF1C2101231B04984266
:1029000001D3000C10391B0A984201D3000A083980
:102910001B09984201D30009043902A2105C401837
:102920007047C046040302020101010100000000DB
:1029300000000000104B0C215A5E08215B5E9A4299
:1029400001DA0D4A93810C4A1021525E934201DA5A
:10295000094A1382084B0E215A5E0A215B5E9A4295
:1029600001DA054AD381044A1221525E934201DA08
:10297000014A53827047C046D001002010B50021A3
:10298000022000F0EDF810BDF0B585B0304F0C23FB
:10299000F95E1023FD5E4B19D80FC018401000B22D
:1029A000B8820E22BB5E12243A5F9E18F40FA4195F
:1029B000641024B2FC824D1BE90F49194910398378
:1029C0009A1AD30F9B185B107B83FFF777FE214A7F
:1029D000214B00900191FFF7DBF8204A204BFEF7D6
:1029E00093F9FFF7FFFE051CF8612000FFF766FE74
:1029F0001C4A1D4B02900391FFF7CAF81B4A1C4B5F
:102A0000FFF746FBFFF7EEFE041C3862281CFFF7B9
:102A100097FE0022174BFEF787FC02000B00009880
:102A20000199FEF771F9FFF7DDFE7862201CFFF7D0
:102A300087FE00220F4BFEF777FC02000B00029886
:102A40000399FEF761F9FFF7CDFEB86205B0F0BD5E
:102A5000D00100205F132DD4F59F503F73D6A71CE3
:102A600093C5BD3FB7369E190E95503FCC0A45BA67
:102A70009F53B43F009867C0F8B50021012000F0D3
:102A80006FF8FFF757FFFFF77FFF304C0823E05E3A
:102A9000FEF7EAF8616AFDF74BFF051C0A23E05ECA
:102AA000FEF7E2F8A16AFDF743FF061C1823E05E7B
:102AB000FEF7DAF8011C281CFDF72AFC051C1A2376
:102AC000E05EFEF7D1F8011C301CFDF721FC061C6E
:102AD000281CFFF735FE04000D00301CFFF730FE08
:102AE00022002B0004F053FEFFF77CFE041CFFF7CE
:102AF00027FE06000F00164A164BFDF7C5FB0028FF
:102B000005D00021201CFDF7E5FB00280FD112495C
:102B1000201CFDF7EDFDFFF713FE0D4A0F4BFEF7EE
:102B200003FCFFF75FFE094B18600020F8BD084A60
:102B30000A4B30003900FEF7E7F8054A074BFEF76D
:102B4000E3F8FFF74FFE041CE1E7C046D001002088
:102B500044174154FB2109C000003443FB210940C4
:102B600030B587B0012805D0022800D1A8E00020A8
:102B700007B030BD6B469C1D00232380002210212E
:102B8000C44800F08FFE02222100C34802F0DEFF9D
:102B9000C14803F0D9FA0128FAD1BE4D0122102113
:102BA000280000F07FFE6B469C1D872323800022B7
:102BB0001021280000F076FE01222100B64802F024
:102BC000C5FFB54803F0C0FA0128FAD1B24C012381
:102BD000012202A9200002F0F1FE0722AF492000E5
:102BE00003F03CF9AC4803F0AFFA0128FAD1A94D43
:102BF00001221021280000F055FE6B469C1DBF23CA
:102C0000238000221021280000F04CFE0122210028
:102C1000A14802F09BFFA04803F096FA0128FAD1E0
:102C20009D4C0123012202A9200002F0C7FE0722C9
:102C30009B49200003F012F9974803F085FA012818
:102C4000FAD1944D01221021280000F02BFE6B4692
:102C50009C1DF223238000221021280000F022FE78
:102C6000012221008C4802F071FF8B4803F06CFABE
:102C70000128FAD1884C0123012202A9200002F088
:102C80009DFE02228749200003F0E8F8824803F005
:102C90005BFA0128FAD1012210217E4800F002FEE1
:102CA000814B2E229A5C12022D21595C52181A81F6
:102CB00030229A5C12022F21595C52185A8156E731
:102CC0006B469C1D794B238000221021714800F037
:102CD000E9FD02222100704802F038FF6E4803F03F
:102CE00033FA0128FAD16B4D01221021280000F09F
:102CF000D9FD6B469C1D6E4B2380002210212800BD
:102D000000F0D0FD02222100634802F01FFF62485C
:102D100003F01AFA0128FAD15E4D01221021280091
:102D200000F0C0FD6B469C1D002323800022102173
:102D3000280000F0B7FD02222100574802F006FFEC
:102D4000554803F001FA0128FAD1524D0122102111
:102D5000280000F0A7FD6B469C1D872323800022DE
:102D60001021280000F09EFD012221004A4802F0B7
:102D7000EDFE494803F0E8F90128FAD1464C012359
:102D8000012202A9200002F019FE07224349200077
:102D900003F064F8404803F0D7F90128FAD13D4D1B
:102DA00001221021280000F07DFD6B469C1DBF23F1
:102DB000238000221021280000F074FD0122210050
:102DC000354802F0C3FE344803F0BEF90128FAD1B9
:102DD000314C0123012202A9200002F0EFFD07225D
:102DE0002F49200003F03AF82B4803F0ADF90128F1
:102DF000FAD1284D01221021280000F053FD6B4626
:102E00009C1DF223238000221021280000F04AFD9F
:102E100001222100204802F099FE1F4803F094F996
:102E20000128FAD11C4C0123012202A9200002F042
:102E3000C5FD02221B49200003F010F8164803F0DC
:102E400083F90128FAD1134D01221021280000F046
:102E500029FD6B469C1D6123238000221021280040
:102E600000F020FD022221000B4802F06FFE0A480C
:102E700003F06AF90128FAD101221021054800F077
:102E800011FD094A2E23D35C1B022D21515C5B18D6
:102E900093876CE60004004854020020FC010020E7
:102EA000030200200A020020D0010020715A000015
:102EB0006180FFFFF0B589B01422002103A804F05F
:102EC0005EFC294B596980200003014359615A690E
:102ED00002400092009A59698020800201435961A2
:102EE0005A6902400192019A5A698021C9020A4333
:102EF0005A615B690B400293029B9027FF050022F9
:102F00002021380000F0CEFC184E002210213000A5
:102F100000F0C8FC80239B010393154B049300250C
:102F2000059503A9134800F0EFFB20230393012428
:102F300004940595069503A9380000F0E5FB1023DD
:102F40000393049405940D3B069303A9300000F00D
:102F5000DBFB00220221072000F0B4FA072000F07A
:102F6000E3FA09B0F0BDC04600100240000400487A
:102F7000000031100008004800B583B0094A5169CB
:102F8000012319435161526913400193019B0022AF
:102F900000210B2000F096FA0B2000F0C5FA03B0D8
:102FA00000BDC0460010024030B58BB008220021A1
:102FB00008A804F0E4FB1C22002101A804F0DFFBB8
:102FC000114C124B2360022363600025A56001337E
:102FD000E3602561A561200003F0AEFA089509952C
:102FE00008A9200003F0BAFB602301930295039522
:102FF0000595042201A9200003F0FCFA200000F04E
:1030000067F90BB030BDC046040300200004004047
:1030100010B51048104B036082235B00436080238F
:103020001B028360E023DB00C36000230361436174
:10303000802292008261E13AFF3AC26103624362F8
:103040008362193AC26203630833436302F0FCFAF5
:1030500010BDC046540200200038004010B598B0A2
:10306000342200210BA804F08AFB1022002107A8BB
:1030700004F085FB1C220021684604F080FB20231D
:103080000B931F3B13930BA801F052FD07230793EB
:10309000043B0893002409940A94012107A802F034
:1030A0000DF880239B0200930694684602F0FAF81C
:1030B00018B010BD70B500F0D5F9FFF7CFFFFFF7DE
:1030C000F9FEFFF759FFFFF76FFFFFF7A1FF04F0CD
:1030D000E3F802221A4B9A6304211A4803F00CFB0E
:1030E000642000F0DDF9FFF749FCFFF747FC0AE038
:1030F000FFF744FCFFF742FC0022134B1A70134BFE
:103100001B78012B06D0104B1B78002BF0D1FFF75A
:10311000B3FCF4E70E4C3F220E49200004F026FBDE
:10312000013C912323700C4D40222100280003F024
:103130002EFC40222100280003F029FCE3E7C046D2
:10314000000400400403002046030020200100206A
:1031500049030020D00100201C04002010B50268A3
:10316000034B9A4200D010BD00F08CF9FBE7C0463B
:10317000001000407047000000B583B00D4B996906
:1031800001221143996199690A400092009ADA6913
:10319000802149050A43DA61DB690B400193019BF9
:1031A00000220021042000F08DF9042000F0BCF979
:1031B00003B000BD00100240F0B589B00400142235
:1031C000002103A804F0DBFA2F4B22689A4201D0B9
:1031D00009B0F0BD2D4BD9698020C0010143D961F0
:1031E000DA6902400192019A5A698021C9020A43B0
:1031F0005A615B690B400293029B80239B010393FE
:1032000002250495059503270697214E03A9300052
:1032100000F07AFA80231B0203930495012305939F
:1032200006970025079503A9300000F06DFA1948AC
:10323000194B03601023436085607033C3600561E0
:1032400045618561C56100F0A3F9002816D1114BD5
:1032500063655C621148124B036000234360836026
:103260008022C260036143618361C36100F090F911
:10327000002806D1094BA3655C62A9E7FFF77AFF36
:10328000E5E7FFF777FFF5E7003800400010024060
:10329000000400488C03002058000240B8020020BF
:1032A0004400024082B00268074B9A4201D002B04B
:1032B0007047064AD16902231943D161D26913408C
:1032C0000193019BF3E7C046000400400010024058
:1032D00010B586B004001422002101A804F04FFAB2
:1032E00022680E4B9A4201D006B010BD0C4A5169BB
:1032F0008020C00201435161536903400093009B49
:10330000202301931E3B0293039301330493023B5A
:10331000059301A9034800F0F7F9E5E70004004030
:10332000001002400004004800B587B001000022F0
:10333000112000F0C7F8112000F0F6F8134AD16907
:1033400010231943D161D26913400093009B01A956
:1033500002A801F08BFF01F079FF0D49FCF7D4FEC4
:10336000431E0C480C4A02600C4AC26043600023B2
:103370000361836003F0C6F8002802D0012007B083
:1033800000BD044802F0AFFFF9E7C046001002405C
:1033900040420F00D803002000100040E703000067
:1033A0007047FEE7704770477047704710B5802040
:1033B000800100F07FFA044B1B78002B02D1012220
:1033C000014B1A7010BDC0464603002010B50348DB
:1033D00000F045F9024800F042F910BDB8020020A3
:1033E0008C03002010B5024802F08CFF10BDC046CF
:1033F000D803002010B5024801F0ECFA10BDC04619
:1034000040080020114B1A6801210A431A605A68CB
:103410000F4802405A601A680E4802401A601A6843
:103420000D4802401A605A680C4802405A60DA6A35
:103430000F208243DA621A6B094802401A635A6B02
:103440008A435A6300229A607047C04600100240C7
:103450000CB8FF08FFFFF6FEFFFFFBFFFFFFC0FFFA
:103460002CFEFCFF10B5064A136810210B431360B5
:103470000020FFF759FFFFF77FFE002010BDC04678
:1034800000200240024A1368013313607047C046AF
:1034900018040020014B18687047C046180400202B
:1034A00030B583B00190FFF7F5FF0500019C631C68
:1034B00000D00134FFF7EEFF401BA042FAD303B067
:1034C00030BD000070B5002811DB8308144DC033F7
:1034D0009B005C5903221040C000FC32160086405D
:1034E000B44389010A40824022435A5170BDC0B2A0
:1034F0000F230340083B9B0806339B00094A944670
:1035000063445D6803221040C000FF242200824013
:10351000954389010C4084402C435C60E6E7C0463B
:1035200000E100E000ED00E01F2318401E3B834057
:10353000014A13607047C04600E100E070B5C56BFA
:103540000124066CB4406C60046863604368102B0F
:1035500004D0036899600368DA6070BD03689A60FC
:103560000368D960F9E7000010B504000368064A53
:103570009446634418001421FCF7C6FD80002064C3
:10358000024BE36310BDC046F8FFFDBF00000240E0
:1035900070B5041E24D021250223435501680B6811
:1035A000104A1A40436880680343E0680343206977
:1035B000034360690343A0690343E0690343134382
:1035C0000B602000FFF7D0FF0023A362E3622363B8
:1035D0006363A363012262551F32A354002070BDB0
:1035E0000120FCE70FC0FFFF70B504002020205C25
:1035F000012832D00125202025540130205C0128EB
:1036000004D000222023E254022070BD0135203076
:1036100025540020A063256828680126B04328604F
:103620002000FFF78BFFE36A002B0BD022681368A2
:103630000E210B4313602268136801210B431360B2
:103640000020E2E7226813680A210B431360226816
:10365000136806398B431360EDE70220D5E770B598
:10366000C36B1A6804682568016C04238B401342FD
:1036700012D06B0710D523689B0603D4236804225D
:1036800093432360C26B0423016C8B405360C36A75
:10369000002B00D0984770BD02238B40134218D0F6
:1036A000AB0716D523689B0606D423680A229343EA
:1036B0002360093A2123C254C26B0223016C8B4060
:1036C000536000222023C254836A002BE3D0984722
:1036D000E1E708238B401342DDD02B07DBD52368BD
:1036E0000E2293432360C26B01231900046CA14096
:1036F000516083632122835400221F33C254036B21
:10370000002BC8D09847C6E7F0B5C64600B582B0D2
:10371000002381E0DF080837BF003E5807251D4021
:10372000AD000F24AC40A6430C69AC4025003543E6
:103730003D5081E0856864462540CE68BE403543F3
:10374000856045682C004546AC434D682E0901252F
:1037500035409D402C434460C46865462C408D68CC
:10376000BD402C43C4604C68E40054D5464DAE695E
:1037700001242643AE61AD692C400194019C9C0854
:10378000A51CAD00414EAE5903271F40BD000F27B9
:10379000AF40BE439027FF05B84268D03C4FB842C7
:1037A00067D03C4FB84266D03B4FB84265D03B4FE4
:1037B000B8425AD00527AF403D0035430234A4003B
:1037C000324EA551364C2568D44326002E404F6812
:1037D000FF0301D515432E00314D2E606D682E007C
:1037E00026404F68BF0301D515432E002C4D6E6057
:1037F000AD682E0026404F68FF0201D515432E000C
:10380000274DAE60ED682C404E68B60201D52A43C4
:103810001400234AD46001330A681400DC402ED01F
:1038200001249C40A0462240F5D04D68022D00D1D5
:1038300070E7122D00D16DE706685F0003252C00AC
:10384000BC40E443A44626404C682540BD40354377
:1038500005604D686E1E012E00D86BE7112D00D15A
:1038600068E7122D00D077E764E70427A3E7002775
:10387000A1E701279FE702279DE703279BE702B007
:1038800004BC9046F0BDC04600100240000001405C
:103890000004004800080048000C004800100048E0
:1038A00000040140002A01D1816270478161FCE778
:1038B0007047000010B5054B5B69184200D110BD80
:1038C000024B5861FFF7F4FFF9E7C04600040140DE
:1038D00070B5041E58D0EA23FF33C35C002B05D01B
:1038E0000322EA23FF33E254002218E00022E933E6
:1038F000FF33C25403F0C0FDF2E7D100891A8B00F8
:10390000E318190029310120087001390A701800E4
:103910002B300021017059639963D96301326068CB
:103920008242EAD3002214E0D100891A8B00E31806
:103930001D000A35FF3500212970013D2A7003352D
:10394000297009352960043529601D33FF3319605A
:1039500001328242E8D3402301222168CA52002268
:103960002168CA524421206842520C3120684252D8
:10397000064A2168CA521C3B0022E254EA23FF3364
:103980000122E254002070BD0120FCE700BFFFFFD0
:10399000016858228B5A034803439BB28B52002084
:1039A0007047C0460080FFFFF4235B00C35C012B1F
:1039B00013D00122F4235B00C25400290AD17F32C4
:1039C0009D3BFF3B0168CA520022F4235B00C254B6
:1039D000002070472423C154F6E70220F9E70000D5
:1039E00070B54EB2002E65DB7F240C40E5002D1B28
:1039F000AC000934FF3404197F250D402570F60F03
:103A00006670E260E370F4235B00C35C012B00D1BD
:103A100075E10122F4235B00C254E378012B00D14D
:103A200074E0002B4ED0022B59D0032B61D02278AA
:103A3000930001688C4663441988B24D29400A43BB
:103A4000B1490A431A80A37A002B00D0B5E063780D
:103A5000002B00D167E001685023CB5A2278D200B6
:103A60009B185B188022D20094466344A2880121EF
:103A70008A431A8023789B000268944663441A881C
:103A8000510603D52A40A1490A431A8022789200A0
:103A900003689C46624413889D490B4020214B409B
:103AA0009BB299490B4313800022F4235B00C2545C
:103AB000002070BD7F240C40E5002D1BAC00283495
:103AC000041999E723789B000268944663441A8896
:103AD00090491140802292000A431A80A7E7237878
:103AE0009B000268944663441A888A490A401A80F7
:103AF0009DE723789B000268944663441A888549B1
:103B00001140C022D2000A431A8090E723789B001C
:103B10000268944663441A887E4911408022D2008C
:103B20000A431A8083E7016850254B5B2278D20054
:103B30009B185B18784A94466344A28801218A4303
:103B40001A8001684B5B2278D2009B185B18734A7D
:103B500094466344E1683E2926D94A0992B2C906CF
:103B600001D1013A92B2920292B26D490A431A808F
:103B700023789B000268944663441A88510404D554
:103B800060490A4067490A431A8023789B0002680B
:103B9000944663441988644A1140C02292015140FE
:103BA000594A0A431A807FE74A0892B2C90701D5E9
:103BB000013292B292021A80DAE723789B000268FF
:103BC000944663441A8859491140594A0A431A8055
:103BD000016850268B5B2278D2009B185B188022EC
:103BE000D20094466344E28801218A431A80056822
:103BF000AB5B2278D2009B185B19474A944663441A
:103C000022898A431A806378002B3DD123789B0058
:103C10000268944663441A88510404D539490A401D
:103C200040490A431A8023789B0002689446634403
:103C30001A88510604D533490A4034490A431A8088
:103C400023789B000268944663441A882D491140EA
:103C50002E4A0A431A802178890003689C466144F1
:103C60000B88314A1A40C0239B015340264A134314
:103C70000B8023789B0001688C4663441988244C90
:103C800021400A431A800FE723789B00026894467C
:103C900063441A88510404D51A490A4021490A4349
:103CA0001A8023789B000268944663441A88510660
:103CB00004D514490A4015490A431A8023789B0009
:103CC0000268944663441A880E491140154A0A4313
:103CD0001A802178890003689C4661440B880C4A4D
:103CE0001340094A13430B8023789B0001688C46DC
:103CF000634419880C4C21400A431A80D4E6022000
:103D0000D7E6C0460F0F00008080FFFFC080FFFF96
:103D1000BF8FFFFF8F89FFFF04040000060400002F
:103D20000080FFFF80C0FFFF8FBFFFFF0F0E00006E
:103D30008081FFFF10B54AB2002A3ADB7F230B4097
:103D4000DC00E41AA3000933FF33C3187F242140A9
:103D50001970D20F5A70F4225200825C012A00D1ED
:103D6000C1E00121F422520081549A7A002A41D103
:103D70005A78002A25D01A78920001688C4662444D
:103D800011884C0604D5594C2140594C21431180CF
:103D90001B789B000268944663441A885549114079
:103DA000554A0A431A800022F4235B00C2540020C3
:103DB00010BD7F230B40DC00E41AA3002833C31896
:103DC000C4E71A78920001688C46624411884C045A
:103DD00004D5464C2140494C214311801B789B005F
:103DE0000268944663441A8845491140424A0A438E
:103DF0001A80D8E75A78002A3AD11A7892000168D6
:103E00008C46624411884C0404D5384C21403B4C0C
:103E1000214311801A78920001688C46624411880F
:103E20004C0604D5314C2140314C214311801A7885
:103E3000920001688C46624411882C4C0C402C493D
:103E4000214311801C78A4000268944664442288AF
:103E50002B490A4028490A4322801B789B000268AC
:103E6000944663441A88234C2240114319809AE7F0
:103E70001A78920001688C46624411884C0404D57B
:103E80001A4C21401D4C214311801A789200016880
:103E90008C46624411884C0604D5144C2140144CC5
:103EA000214311801A78920001688C46624411887F
:103EB0000E4C0C401149214311801C78A40002686B
:103EC0009446644422880B490A400B490A432280E5
:103ED0001B789B000268944663441A88084C224071
:103EE000114319805FE7022062E7C0460F0F000010
:103EF000C080FFFFBF8FFFFF8080FFFF80C0FFFFFC
:103F00008FBFFFFF70B57F242140CD006D1AAC003C
:103F1000041925001935FF352A6022001D32FF32B1
:103F20001360083500222A60173D2A7022000932EA
:103F3000FF3211701534FF342268934240D9CD000E
:103F40006D1AAC0004191D34FF349B1A2360CC0099
:103F5000641AA3001C00C3181333FF331B78002B13
:103F600041D105685033EB5A04190934FF342478E1
:103F7000E4001B195B195E4CA44663443E2A29D910
:103F80005409A4B2D20601D1013CA4B2A402A4B245
:103F9000584A14431C800368CA00511A8A008018CA
:103FA0000930FF30027892009B181988524A11405C
:103FB000C02292015140514A0A431A80002070BD2C
:103FC000CC00641AA20082181D32FF320024146053
:103FD0001A00BCE75408A4B2D20701D50134A4B238
:103FE000A4021C80D7E7CC00641AA3001C00C318ED
:103FF0000A33FF331B78002B23D105685033EB5A6B
:1040000004190934FF342478E4001B195B193C4C73
:10401000A44663443E2A0BD95409A4B2D50601D163
:10402000013CA4B2A402A4B2324D2C431C800AE08D
:104030005408A4B2D50701D50134A4B2A4021C804F
:1040400001E0012B24D0CC00641AA3001C00C3188B
:104050000A33FF331B78002B35D105685033EB5AF8
:1040600004190934FF342478E4001B195B19204C2F
:10407000A44663443E2A1DD95409A4B2D20601D1F4
:10408000013CA4B2A402A4B21A4A14431C8082E7E1
:1040900005684F33EB5ACE00761AB4000419093480
:1040A000FF342478E4001B195B19154CA4466344C3
:1040B0001A80C8E75408A4B2D20701D50134A4B2CB
:1040C000A4021C8067E7012B00D064E705684F332A
:1040D000EB5ACE00761AB40004190934FF34247860
:1040E000E4001B195B19024CA44663441A8052E792
:1040F000060400000080FFFF8FBFFFFF8080FFFFEE
:104100000204000010B5F4235B00C35C012B4ED009
:104110000122F4235B00C2544CB2002C20DBCA0005
:10412000521A93000933FF33C31801229A707E326A
:1041300011401970E40F5C7000291AD189000368DE
:104140009C4661440A881B4B1A401B4B5A401B4B30
:1041500013430B800022F4235B00C254002010BDE7
:104160006A3BFF3B0B40DA00D21A93002833C31896
:10417000DBE7002C0DD0890003689C4661440B8866
:104180000F4A1340102253409BB20C4A13430B803A
:10419000E0E7890003689C4661440A88094B1A409D
:1041A00080235B015A40054B13430B80D2E702206A
:1041B000D5E7C046BFBFFFFF101000008080FFFFA3
:1041C000BF8FFFFF8FBFFFFF10B54AB2002A39DB58
:1041D000CC00641AA3000933FF33C31800249C7079
:1041E0007F3421401970D20F5A70F4225200825C41
:1041F000012A4BD00121F422520081545A78002A1E
:1042000028D01A78920001688C46624411884C06C6
:1042100004D51F4C21401F4C214311801A78920075
:1042200003689C46624413881B490B4030214B4075
:104230009BB21A490B4313800022F4235B00C25443
:10424000002010BD7F230B40DC00E41AA3002833BC
:10425000C318C3E71A78920001688C46624411883B
:104260004C0404D50A4C21400D4C214311801B788D
:104270009B0002689446634419880A4A1140C02290
:1042800092015140054A0A431A80D5E70220D8E737
:104290000F0F0000C080FFFFBF8FFFFF8080FFFF78
:1042A00080C0FFFF8FBFFFFF10B501335B081218FE
:1042B0008020C000141807E00A7848780002024302
:1042C00022800231013B0234002BF5D110BD0000E9
:1042D000F8B505007F240C40E000001B8100691840
:1042E0008A63CB6300220A640A002932012010701D
:1042F000013A14704F6BBB4233D9DB1BCB63E20036
:10430000121B93001A00EB1832331B78002B30D0AD
:104310002868E200121B9300EB1828331B789A00E0
:10432000825A520674D5E600361BB200AA1829320A
:104330001278002A3BD15032825ADB00D318181869
:10434000624B9C4660443E2F28D97B099BB2FA06FB
:1043500001D1013B9BB29B029BB25D4A1343038098
:1043600027E0E100091B8A00AA180021D1631F0081
:10437000C5E7BFB2AE18B28D3B00B16B2868FFF73E
:1043800093FF2A685023D35A28363178C9005B1826
:104390009B18504A944663441F8082E07B089BB27E
:1043A000FA0701D501339BB29B02038001E0012A89
:1043B00024D0E200121B9300EB181A8EBBB2E1006E
:1043C000091B8E00AE19B16B2868FFF76DFF293607
:1043D0003378002B55D0012B63D1E200121B9300E0
:1043E000EB1828331B789B002A68944663441A888C
:1043F00039491140394A0A431A8052E04F32825AF1
:10440000DB00D3181818314B9C4660440780D0E776
:10441000E600361BB200AA1829321278002A1ED1F3
:104420005032825ADB00D31818182A4B9C4660443D
:104430003E2F0BD97B099BB2FA0601D1013B9BB2FF
:104440009B029BB2224A134303800AE07B089BB283
:10445000FA0701D501339BB29B02038001E0012AD8
:1044600005D0E200121B9300EB18DA8DA6E74F325D
:10447000825ADB00D3181818164B9C4660440780FC
:10448000EFE7E200121B9300EB1828331B789B0028
:104490002A68944663441A880F491140104A0A4317
:1044A0001A802A68E1000C1BA300ED1828352B7830
:1044B0009B00D21813880B490B4030214B409BB214
:1044C00009490B4313800020F8BDC04606040000D4
:1044D0000080FFFF020400000F0F000080C0FFFFFC
:1044E000C080FFFFBF8FFFFF8080FFFF10B55C081B
:1044F00010188022D2009446604406E002880A70B8
:10450000120A4A70013C02300231002CF6D1DB075E
:1045100001D503880B7010BDF0B583B005000022F3
:1045200001AB1A80B5E10388A94A134003802968CA
:104530005023CB5A2822AA5CD2009B185B18A54AAC
:10454000944663441B889B059B0D2B64AA6B944681
:104550006344AB630021280002F0C7FF2423EB5C17
:10456000002B00D195E1EB6B002B00D091E12422D0
:10457000AB5C802149420B43DBB2CC31286843520B
:104580000023AB5485E15023C35A84225200AA5C15
:10459000D2009B181B18904A944663441B889B05C5
:1045A0009B0D2A000932FF3293612900ED31FF3162
:1045B0009288FFF79BFF2A68138888490B40138075
:1045C000280002F079FF64E1140092882169FFF766
:1045D0008DFF2369A26994466344236195E14B08EA
:1045E0009BB2C90701D501339BB29B021380A9E19D
:1045F000A6008019028801AB1A801B881BB2002B11
:1046000031DB01AB1B881B0600D442E12B689C46C2
:10461000664433886E4A13403380E200121B9300D5
:104620001A00EB1832331B78002B00D0DCE028682E
:104630005033C35AAA18110028310978C9005B18F1
:104640001B1864498C4663441B889B059B0D1364AF
:1046500000D1F9E0E200121B910069188A8D896B84
:10466000FFF722FEF0E05D4B1A400280E200121BD1
:1046700093001A00EB181333FF331B78002B1DD166
:1046800028685033C35A1100AA180932FF32127831
:10469000D2009B181B18504A944663441F88BF05DC
:1046A000BF0D34D06B181A000D32FF321288193347
:1046B000FF3319683B00FFF719FF28E02868E20084
:1046C000121B9300EB180933FF331B789A00825AB0
:1046D000520456D55022825ADB00D3181B183D4A8B
:1046E000944663441F88BF05BF0D3BD1E200121BF7
:1046F0009300EB180933FF331B789B002A6894461C
:1047000063441A8836491140364A0A431A803900F0
:10471000E200121B9300EB1818002130FF300268F2
:10472000D21902601A001932FF32106884466744B9
:1047300017601D33FF331B68002B08D0E200121BEB
:10474000900028181530FF300268914234D2E20000
:10475000121B9300EB180933FF331978280002F07D
:10476000B5FE4EE7E200121B9300EB181A000F3261
:10477000FF3212881933FF3319683B00FFF7B6FE8A
:10478000B4E75022825ADB00D3181B18124A944611
:1047900063441F88BF05BF0DA8D0E200121B930021
:1047A000EB181A001132FF3212881933FF331968DF
:1047B0003B00FFF79BFE99E7E100091B8A00AA185E
:1047C0000932FF3211783A002800FFF79BFB18E707
:1047D0000F8FFFFF02040000060400008F0F00008F
:1047E0000F0F0000C080FFFF2868E200121B93003B
:1047F000EB1828331B789A00825A520600D4B2E094
:104800005022825ADB00D3181B186A4A944663442C
:104810001B889B059B0DE100091B8A001100AA184B
:104820001364002B00D098E0E200121B9300EB18F9
:1048300028331B789B002A68944663441A885E4993
:1048400011405E4A0A431A8028685023C25AE10088
:10485000091B8B00EB18190028310978C900521880
:10486000121854498C46624412889205920D1A64BB
:10487000996B8C4662449A63DB6B002B00D08CE012
:10488000E3001C1BA300EB1828331978280002F062
:104890002CFE28684423C35A9BB26A46D3801BB2BD
:1048A000002B00DB83E06B46DC880F231C4000D02C
:1048B0009EE66B4606331B88DB0600D433E602888F
:1048C00001AB1A801B881B0500D55CE601AB1B8879
:1048D0001BB2002BDDDA0388394A134003802868B5
:1048E0005023C35A84225200AA5CD2009B181B1882
:1048F000344A944663441B889B059B0D2A00093269
:10490000FF329361002B00D05EE60021280002F008
:10491000DDFD2B6850229A5A9A182A4B9C46624415
:104920002B000933FF33D9683E2900D857E64B09DD
:104930009BB2C90601D1013B9BB29B029BB22249AB
:104940000B43138029680A88204B1A40C0239B011F
:104950005A401F4B13430B809BE76918CA8D896B24
:10496000FFF7A2FC60E75022825ADB00D3181B1825
:10497000144A944663441B889B059B0DE100091B68
:104980008A001100AA181364002B00D14CE76918A3
:104990000A8E896BFFF788FC46E7E1000C1BA1003B
:1049A0006918283109782800FFF792FC71E7002088
:1049B00003B0F0BD020400000F0F000080C0FFFF35
:1049C0008F0F0000060400000080FFFF8FBFFFFF75
:1049D0008080FFFF70B5040044230268D35A1BB2E5
:1049E000002B48DB236844229A5A520546D4236898
:1049F00044229A5A520404D544215A5A3548024056
:104A00005A52236844229A5A920404D544215A5A8D
:104A1000314802405A52236844229A5AD2043AD466
:104A2000236844229A5A120515D544215A5A2B4814
:104A300002405A5220684022835A08252B439BB2D9
:104A400083522068835A04252B439BB283522368E8
:104A50005B5ADB0431D5236844229A5A920530D43C
:104A6000236844229A5AD20504D544215A5A1C4834
:104A700002405A5270BDFFF74FFDB3E744215A5A26
:104A8000184802405A52200002F043FD0021200045
:104A9000FEF78AFFABE74022995A042081439952DE
:104AA000114B21688B52200002F056FD21684422F0
:104AB0008B5A0E4803408B52B2E7200002F03AFDB9
:104AC000C9E744215A5A0A4802405A52200002F0CB
:104AD00019FDC5E7FFBFFFFFFFDFFFFFFFF7FFFF88
:104AE000FFFEFFFFFFFBFFFF00BDFFFFFFEFFFFF2C
:104AF000FFFDFFFF10B50C060FD57F242140CC0031
:104B0000611A8C0028340019002A0DD0012282720B
:104B1000C3801B0C0381002010BDCC00611A8C00E7
:104B20000934FF340019EFE782728380F3E7000055
:104B300070B582B004000368DB073BD5C34B5A68ED
:104B40000C231340042B2DD0C04B5A680C23134068
:104B5000082B1ED06368012B50D0002B55D1BB4BC6
:104B60001A68BB490A401A601A68BA490A401A60B2
:104B70006368002B61D0FEF78DFC0500B34B1B680A
:104B80009B0317D4FEF786FC401B6428F6D903204C
:104B90003BE2AE4B5B68C0225202134080225202BD
:104BA0009342D7D1A94B1B689B0303D56368002BA5
:104BB00000D127E223689B0767D5A44B5B680C22D2
:104BC0001A4251D0A14B5A680C231340082B42D0F3
:104BD000E368002B7BD09D4A136801210B431360CF
:104BE000FEF758FC0500994B1B689B0766D4FEF73F
:104BF00051FC401B0228F6D9032006E2934A1168B3
:104C000080235B020B431360B2E7052B09D08F4B67
:104C10001A688F490A401A601A688E490A401A6059
:104C2000A6E78A4B19688022D2020A431A601968E3
:104C3000802252020A431A609AE7FEF72BFC050015
:104C4000824B1B689B03B5D5FEF724FC401B6428F0
:104C5000F6D90320D9E17D4B5B68C0225202134094
:104C6000802212029342B3D1784B1B689B0704D574
:104C7000E368012B01D00120C7E174490B68F822D9
:104C800093432269D20013430B6023681B0744D56A
:104C9000E369002B2ED06D4A536A01210B43536206
:104CA000FEF7F8FB0500694B5B6A9B0735D4FEF7FE
:104CB000F1FB401B0228F6D90320A6E163490B68EB
:104CC000F82293432269D20013430B60DDE75F4A69
:104CD000136801218B431360FEF7DCFB05005B4B7F
:104CE0001B689B07D1D5FEF7D5FB401B0228F6D9E0
:104CF00003208AE1554A536A01218B435362FEF730
:104D0000C9FB0500514B5B6A9B0706D5FEF7C2FB4A
:104D1000401B0228F6D9032077E123685B0775D58D
:104D20004A4BDB69DB000BD4484AD169802040053F
:104D30000143D161D36903400193019B012500E048
:104D40000025454B1B68DB051FD5A368012B30D020
:104D5000002B34D13D4B1A6A01218A431A621A6A28
:104D600003318A431A62A368002B3ED0FEF792FB00
:104D70000600364B1B6A9B0746D4FEF78BFB801B55
:104D8000364B9842F5D903203FE1334A116880231E
:104D90005B000B431360FEF77DFB06002E4B1B6888
:104DA000DB05D2D4FEF776FB801B6428F6D90320FE
:104DB0002BE1264A136A01210B431362D3E7052B2B
:104DC00009D0224B1A6A01218A431A621A6A0331F6
:104DD0008A431A62C7E71D4B1A6A04210A431A6202
:104DE0001A6A03390A431A62BDE7FEF753FB06004D
:104DF000164B1B6A9B0707D5FEF74CFB801B174B16
:104E00009842F5D9032000E1012D29D02368DB0663
:104E100058D56369012B29D0053347D00B4B5A6B0A
:104E200004210A435A635A6B03398A435A63FEF7D3
:104E300031FB0500054B5B6B9B0743D5FEF72AFB57
:104E4000401B0228F6D90320DFE0C04600100240D4
:104E5000FFFFFEFFFFFFFBFF007000408813000014
:104E60006C4AD3696C490B40D361CFE7694B5A6BED
:104E700004210A435A635A6B03390A435A63FEF703
:104E800009FB0500634B5B6B9B0706D4FEF702FB37
:104E9000401B0228F6D90320B7E05E494B6BF8228D
:104EA0009343A269D20013434B630BE0594A536BFF
:104EB00004218B435363536BF4318B43A169C900C5
:104EC0000B43536323689B0645D5524B5A680C230A
:104ED00013400C2B23D04F4B5A680C231340082B44
:104EE00016D0236A002B23D04A4A516B80235B02E1
:104EF0000B435363FEF7CEFA0500464B5B6BDB03B7
:104F000029D4FEF7C7FA401B0228F6D903207CE01B
:104F1000404B5B68C022520213409342E1D13D4BAB
:104F20005B6BDB0317D5236A012B14D001206CE0E7
:104F3000384A536B39490B405363FEF7ABFA05000F
:104F4000344B5B6BDB0306D5FEF7A4FA401B02284B
:104F5000F6D9032059E0636A002B55D02D4A5168D9
:104F60000C220A40082A52D0022B12D0294A136878
:104F70002B490B401360FEF78DFA0400254B1B688C
:104F80009B013DD5FEF786FA001B0228F6D90320C7
:104F90003BE0204A136822490B401360FEF77AFA7F
:104FA00005001C4B1B689B0106D5FEF773FA401BDE
:104FB0000228F6D9032028E0164BDA6A0F218A432B
:104FC000216B0A43DA625A6816490A40E16AA06A0C
:104FD00001430A435A601968802252040A431A6046
:104FE000FEF758FA04000B4B1B689B0106D4FEF732
:104FF00051FA001B0228F6D9032006E0002004E045
:10500000002002E0012000E0002002B070BD01207D
:10501000FBE7C04600100240FFFFFFEFFFFFFEFF6F
:10502000FFFFFFFEFF7FC2FF30B589B004AA1F4B10
:10503000180032C832C2110002680A606A46103392
:1050400013CB13C21B681360194B5A680C2313400F
:10505000082B04D00C2B26D0164809B030BD910C7B
:105060000F23194004A8445C1149C96A0B406946E2
:10507000C95CC0235B021A4080235B029A4208D0BD
:10508000C0235B029A4209D00A48FBF73DF860430F
:10509000E3E70848FBF738F86043DEE70648FBF72C
:1050A00033F86043D9E70448D7E7C046307C0008AE
:1050B0000010024000127A00006CDC0270B505009E
:1050C0000C00594B1A68012313408B420BD25649EE
:1050D0000B680122934323430B600B681A409442F0
:1050E00001D001209DE02B689B0706D54F4A5368ED
:1050F000F0218B43A9680B4353602B68DB0764D511
:105100006B68012B25D0022B29D0032B2DD0474AC9
:105110001268920700D485E044494A68032082431C
:1051200013434B60FEF7B6F906006B68012B22D0E3
:10513000022B2ED0032B3AD03C4B5B680C221A4238
:1051400043D0FEF7A7F9801B394B9842F4D90320CE
:1051500067E0364A12689203DED4012061E0334AE8
:1051600012689201D8D401205BE0304A526BD2031E
:10517000D2D4012055E02D4B5A680C231340042B48
:1051800023D0FEF787F9801B294B9842F3D90320DF
:1051900047E0264B5A680C231340082B15D0FEF726
:1051A00079F9801B224B9842F3D9032039E01F4B39
:1051B0005A680C2313400C2B07D0FEF76BF9801BA9
:1051C0001B4B9842F3D903202BE0174B1A6801239D
:1051D00013409C420BD214490B6801229343234392
:1051E0000B600B681A40944201D0012019E02B6833
:1051F0005B0706D50D4A53680E490B40E9680B431F
:105200005360FFF711FF094B5A6812090F2313402F
:10521000094AD35CD840094B18600020FEF784F897
:10522000002070BD0120FCE7002002400010024079
:1052300088130000FFF8FFFF907D000800000020A9
:10524000014B18687047C0460000002010B5FFF7FA
:10525000F7FF044B5A68120A07231340024AD35C33
:10526000D84010BD00100240A07D000810B50723F3
:1052700003600A4B5C680322224042605C68F022B3
:10528000224082605B68E022D2001340C360044B7E
:105290001A68012313400B6010BDC0460010024085
:1052A0000020024070B582B004000368DB0335D5EE
:1052B0004B4BDB69DB0066D4494AD169802040054D
:1052C0000143D161D36903400193019B0125454B03
:1052D0001B68DB0559D5424B1B6AC0229200134064
:1052E00013D061680A4093420FD03D4B186A3E4A82
:1052F00002401E6A8021490231431962196A3B4EFD
:10530000314019621A62C30753D4354A136A3649C9
:105310000B4061680B431362012D59D02368DB07F2
:1053200006D52F4A136B03218B43A1680B431363EC
:1053300023689B0706D52A4A136B2D490B40E16869
:105340000B43136323689B0606D5254A136B102174
:105350008B4321690B43136323689B0306D5204AC3
:10536000136B80218B43A1690B43136323685B0597
:1053700033D51B4A136B40218B4361690B43136385
:10538000002002B070BD0025A1E7164A11688023F5
:105390005B000B431360FEF77DF80600114B1B68A2
:1053A000DB0598D4FEF776F8801B6428F6D9032035
:1053B000E7E7FEF76FF80600094B1B6A9B07A4D4CA
:1053C000FEF768F8801B0B4B9842F5D90320D8E70D
:1053D000D36909490B40D361A0E70020D1E7C0465B
:1053E0000010024000700040FFFCFFFFFFFFFEFFC7
:1053F000FFFFFCFF88130000FFFFFFEFF8B506007A
:105400000C0017001D003EE0002D05D0FEF742F80D
:10541000069BC01A854236D832685368E0218B4318
:10542000536082235B0072689A420CD080239B01F8
:10543000B26A9A4216D001225D23F2540022013B47
:10544000F254032027E0B36880221202934203D073
:105450008022D2009342E9D13268136840218B4305
:105460001360E3E7326813680B490B40136032683E
:10547000116880239B010B431360DCE70123BB42CF
:1054800008D06B1CC0D133689B6823409C42F5D088
:105490000023F4E70020F8BDFFDFFFFFF0B583B085
:1054A00007000C0015001E0001E0731C10D13A68C3
:1054B00093682340AB4245D0C023DB009C42F4D12B
:1054C000002DF2D1137BDBB26A46D371D379ECE7BE
:1054D000002E05D0FDF7DEFF089BC01A8642E6D8F5
:1054E0003A685368E0218B43536082235B007A68FB
:1054F0009A420CD080239B01BA6A9A4216D00122AC
:105500005D23FA540022013BFA5403201BE0BB68E0
:1055100080221202934203D08022D2009342E9D12A
:105520003A68136840218B431360E3E73A681368D5
:1055300006490B4013603A68116880239B010B43B6
:105540001360DCE7002003B0F0BDC046FFDFFFFFC3
:1055500070B582B004000D00160000920B0000220E
:10556000C0214901FFF79AFF002806D0236E2022B0
:1055700013432366032002B070BD00962B00002267
:1055800080212000FFF73AFF002805D0236E20225B
:10559000134323660320EEE700962B000022C02170
:1055A000C9002000FFF77AFF0028E4D0236E2022F4
:1055B000134323660320DEE770B582B004000D00BC
:1055C000160082235B0042689A420FD000962B009F
:1055D000002280212000FFF711FF002815D0236E44
:1055E000202213432366032002B070BD836880220B
:1055F0001202934203D08022D2009342E6D1226865
:10560000136840218B431360E0E782235B006268EC
:105610009A42E9D1A36880221202934203D08022E9
:10562000D2009342E0D100962B000022C021C90095
:105630002000FFF733FF0028D6D0236E202213432B
:1056400023660320D0E7000070B5041E5ED000235F
:1056500083625D33C35C002B4CD002225D23E25495
:105660002268136840218B431360E368E022D20074
:10567000934245D90021F0221201934205D0E02245
:10568000D200934201D00022A262226B002A05D1EF
:10569000E022D200934236D9022323632268636852
:1056A000A0680343206903436069034380208000AE
:1056B000A56928400343E0690343206A0343A06AC5
:1056C000034313602268608B04230340606A034332
:1056D000606B0343E06803430B4353602268D36964
:1056E0000B490B40D3610023236601225D33E25452
:1056F000002070BD00225C33C254FDF75DFDACE7B5
:1057000080214901B7E701232363C7E70120F0E7C0
:10571000FFF7FFFFF0B5C64600B504000E00150008
:105720001F005C23C35C012B03D1022004BC904604
:10573000F0BD01225C23C254FDF7ACFE80465D2320
:10574000E35CDBB26268012B13D0822149008A42FC
:1057500007D0022001225D23E2540022013BE254E3
:10576000E4E7A268002A00D018E1042B01D002204F
:10577000F0E7002E00D113E1002D00D112E1002F3F
:1057800000D111E15D23E35C042B02D005225D23EF
:10579000E2540023236625644622A752023AA75208
:1057A000A663E787A787E3642365E023DB00E2685D
:1057B0009A4204D84623E35A9BB2012B22D922688D
:1057C00053687D490B40536023681A68520603D41E
:1057D0001A6840210A431A60E023DB00E2689A421B
:1057E00051D96368002B03D0E38F9BB2012B07D103
:1057F00023683288DA600236E38F013B9BB2E3878D
:10580000012723E02268516880235B010B4353602A
:10581000DAE74623E35A9BB2002B0CD023689A6840
:10582000D20708D5DB682B8002354622A35A013BFC
:105830009BB2A3520127069B013307D0FDF72AFE36
:105840004346C01A069B834200D8AFE0E38F9BB269
:10585000002B05D14633E35A9BB2002B00D18FE0D9
:10586000002FD6D0E38F9BB2002BD2D023689A684A
:105870009207CED53288DA600236E38F013B9BB2C5
:10588000E3870027C5E76368002B03D0E38F9BB253
:10589000012B0BD1E38F9BB2012B09D923683288EE
:1058A000DA600236E38F023B9BB2E387012735E0E3
:1058B000337822681373E38F013B9BB2E387013691
:1058C000F4E732781A73E38F013B9BB2E38701362A
:1058D00000274623E35A9BB2002B15D023689A6811
:1058E000D20711D54622A25A92B2012A3ED9DB68CC
:1058F0002B8002354622A35A023B9BB2A352A35AE5
:105900009BB2012B2AD90127069B013306D0FDF754
:10591000C1FD4346C01A069B834249D9E38F9BB21F
:10592000002B04D14633E35A9BB2002B28D0002F22
:10593000CFD0E38F9BB2002BCBD023689A6892071D
:10594000C7D5E28F92B2012ABBD93288DA6002361B
:10595000E38F023B9BB2E3870027BAE722685168D6
:1059600080235B010B4353600127CDE71B7B2B702A
:105970004622A35A013B9BB2A35201350127C3E73C
:10598000424606992000FFF7E3FD002801D02023BE
:105990002366236E002B0DD10020DBE60220D9E622
:1059A0000120D7E60120D5E60120D3E60320D1E689
:1059B0000320CFE60120CDE6FFEFFFFFF0B585B075
:1059C00004000D0016001F0082235B0042689A420B
:1059D00006D05C23E35C012B0ED1022005B0F0BDA4
:1059E0008368002BF5D104225D33C2540097330045
:1059F0000A00FFF78FFEF1E701225C23E254FDF776
:105A000049FD03905D23E35C012B07D002200122B6
:105A10005D23E2540022013BE254DFE7002D00D178
:105A200081E0002E00D180E004225C33E2540023A8
:105A3000236625644032A6520232A652A363A3878E
:105A4000E387E3642365E023DB00E2689A4217D929
:105A5000226853683B490B40536080231B02A268B5
:105A60009A4214D023681A68520603D41A68402157
:105A70000A431A60E023DB00E2689A4217D932E059
:105A80002268516880235B010B435360E5E722687D
:105A900013682D490B401360E4E7002F47D07B1CAF
:105AA00005D0FDF7F7FC039BC01A874241D9462376
:105AB000E35A9BB2002B28D023689A68D207ECD512
:105AC0001B7B2B7001354622A35A013B9BB2A3528C
:105AD000EDE7002F2FD07B1C05D0FDF7DBFC039BEF
